:10000000F7C0000012C1000010C100000EC10000C6
:100010000CC100000AC1000008C1000006C10000B8
:1000200004C1000002C100000C94B4160C948017A7
:100030000C943812FAC00000F8C00000F6C00000AE
:10004000F4C00000F2C00000F0C00000EEC00000EC
:10005000ECC000000C94AF12E8C00000E6C0000045
:10006000E4C00000E2C00000E0C00000DEC000000C
:10007000DCC00000DAC00000D8C00000D6C000001C
:10008000D4C00000D2C00000D0C00000CEC000002C
:10009000CCC00000CAC00000C8C00000C6C000003C
:1000A000C4C00000C2C00000C0C0000014001A009C
:1000B0000800150000000000000000000000000023
:1000C000040016000700090000000B0000000000FB
:1000D000000000000000000000000000000011000F
:1000E0000000000000000000000000000000000010
:1000F0000000000000000000000000001603660081
:100100007200650065002000770069006C006C00DB
:100110007900000012037300710075006100730024
:1001200068006B00620000000403090409023B0040
:10013000020100A0FA0904000001030101000921E5
:100140001101000122440007058103080001090490
:100150000100010300000009211101000122320009
:10016000070582032000011201000200000008516F
:1001700053574601000102000105010980A10185D4
:100180000319012AB700150126B7009501751081E2
:1001900000C0050C0901A101850419012AA002155E
:1001A0000126A002950175108100C005010906A174
:1001B00001050719E029E71500250195087501815A
:1001C000029501750881010507190029FF15002610
:1001D000FF0095067508810005081901290515001D
:1001E0002501950575019102950175039101C000E6
:1001F00011241FBECFEFDAE0DEBFCDBF11E0A0E0DB
:10020000B1E0ECE9F3E302C005900D92AA38B10722
:10021000D9F722E0AAE8B1E001C01D92A435B207E7
:10022000E1F70E94F10E0C949919EACE811114C0E5
:10023000643090F44A3080F4E42FF0E08AE0689F64
:10024000E00DF11D1124EE0FFF1FE455FF4F8591C6
:100250009591282F822F089521E090E0FBCFE6CFE3
:10026000089581E0089581E00895FBCF089581E02D
:10027000089581E00895FDCF089508950895FDCF74
:10028000089508950895A6E0B0E0E9E4F1E00C9443
:10029000291949835A839E833091910189819A81DA
:1002A000311117C03E81311589F0211579F0F1D453
:1002B000182F682F89819A81CBD469817A81812F07
:1002C0000E94180C2696E3E00C944519D2D4182FFE
:1002D000F4CFDFD469817A81F3CFFC01262F4081EE
:1002E00051816281738184819581CDCFCF93DF93DA
:1002F000EC0161E0F2DFBE01B6DF811529F061E0BB
:10030000CE01EBDFBE01B1DFDF91CF9108950F93F6
:100310001F93CF93DF93EC0160E0DFDF8C01BE0120
:10032000ADDFBE01C801ABDFDF91CF911F910F910F
:1003300008950F931F93CF93DF93EC0161E0CDDF1E
:100340008C01BE0194DF811106C080E0DF91CF9166
:100350001F910F910895BE01C8018DDF8115A9F38A
:10036000BE01C8010E946110811579F3BE01C80168
:100370000E94280F811549F3BE01C8010E94010F98
:10038000811519F3BE01C8010E941B0D8115E9F208
:10039000BE01C8010E942D0D8115B9F2BE01C80130
:1003A0000E94470DD3CF21E030E002C0220F331F5F
:1003B0008A95E2F7C90187C3CF93C82F81E090E007
:1003C0000C2E02C0880F991F0A94E2F70E943C0A83
:1003D0008C2FE9DFCF91089581E0089581E00895A1
:1003E000FBCF0895CF93C82F1DD38C2FF7DF8C2F11
:1003F000F7DF8FEF94E32CE0815090402040E1F74D
:1004000000C00000CF91089581E0ECDF0C94D3127E
:1004100080E0E8DF0C94E41234DF0E94D31117C0AF
:1004200018D030DF0C94D71181E008950895CF9350
:10043000DF93D82FF9DFC82F811511F08D2FF6DF4C
:100440008C2FDF91CF9108950895F1CF089580E02A
:10045000FCCF0E94A810F9CFCF930E94A810C82FFC
:1004600080918C018C1771F0C0938C010E94A312B3
:1004700060938D0170938E0180938F019093900112
:100480008C2FE3DFCF910895ADE0B0E0EAE4F2E035
:100490000C942A19488759876A877B878C879D87A0
:1004A000911105D71F8286E0FE0138969E012F5FCD
:1004B0003F4FD90101900D928A95E1F78D8181110D
:1004C0000CC029813A814B815C816D817E818F8155
:1004D00039D62D96E2E00C944619CE01019606DF3E
:1004E0008111EFCFF6CFFC012481213019F48081F6
:1004F000918102C40895CF93C82F811581F0845053
:10050000813A78F48C2F0E942611811521F08C2FCE
:100510000E94681133D78C2F0E9462112FD7CF9180
:1005200008958C2F805E883048F481E0C1FD84E01E
:10053000C0FD880FC2FD82959BD6F0CF8C2F855AC7
:10054000833030F48C2F8452990B0E94C410E7CF73
:10055000C85ACB3120F7EC2FF0E0EE0FFF1FE05F21
:10056000FE4F808191810E94EB10D9CF811521F13E
:10057000982F9450913A18F40E946811FFC6982F52
:10058000905E983050F4982F81E091FD84E090FDCA
:10059000880F92FD829572D6F1CF982F955A93309D
:1005A00020F480E090E00C94C410885A8B3120F441
:1005B00080E090E00C94EB1008951F93CF93DF93AD
:1005C000182FEB0198DF209731F4812FCFDFDF91D7
:1005D000CF911F9108958FE99FE00197F1F700C037
:1005E00000002197F0CF60E570E0893311F060E002
:1005F00070E0E3CF811511F03BD6C0C60895811598
:1006000011F03CD6BBC60895A0E0B0E0EAE0F3E00C
:100610000C9424196C01D62FC72FFC01158106817B
:1006200002950F701AD6E82E8115E9F0E12E11150A
:10063000D1F08C2F807F803461F08D2F805E8830E8
:1006400098F18C2F807E803221F4D23068F1011530
:1006500059F18091320282FF27C082E0ABD6FDD5EE
:1006600091E08927E82E9C2F92959F70983009F48D
:10067000CAC068F59430D0F4923008F438C08C2F9A
:100680008F70F82EC07FC03219F0F29480EFF822FC
:10069000D13008F456C009F47EC0111509F487C0A2
:1006A000011509F467C036C0E12CDDCF09F48FC015
:1006B000E11409F4D8C0CDD580FDD5C0F60115826E
:1006C000C2D531D2C60183D1BED53BD2CCC0993080
:1006D00009F40BC19A5F9F70923050F7D23F09F036
:1006E00011C18C2F8F7111110BC11DD2B9C00C2FEC
:1006F0000F70C03110F00295007F111581F00115C7
:1007000049F08D2F805E883010F0D11105C0802F08
:10071000AFD534D68D2F21C0802FBBD5FACF8D2FEA
:1007200025DF011509F4C4CF8D2F805E883010F0CD
:10073000D11103C0802FA2D502C0802FB0D51ED604
:10074000B7CF8091320282FD11C0111541F0F11432
:1007500019F08F2D8DD512D680E0CDDEA9CF80E0A7
:1007600005DFF11409F4A4CF8F2DE5CF111551F059
:10077000013018F48F2D3EDF9BCF09F099CF8F2DDC
:10078000AAD596CF011194CF8F2D39DF8F2DAED5FD
:100790008F2D93D58DCF111521F0063008F088CF1D
:1007A000E9CF053008F084CF8F2D29DF81CF0115E7
:1007B000D9F3D93349F48FEF97EE23E0815090407D
:1007C0002040E1F700C000008D2FD0DE71CF8C2FCC
:1007D000869586958370813060F009F069CF8D2F02
:1007E0009C2F9370111102C080E090E00E94EB10EA
:1007F0005FCF8D2F9C2F9370111102C080E090E08D
:100800000E94C41055CF8C2F8370C1F5111128C0E0
:100810004D2F429546954770440F440F2D2F2F7052
:1008200030E0042E02C0220F331F0A94E2F780E06A
:1008300090E0D4FF09C08FE090E002C0880F991FBC
:100840004A95E2F780959095C695C695C370822B20
:10085000932BC23079F0C33079F0C13049F03CD1EC
:100860000E94A810F2DDCDB7DEB7E8E00C94401985
:100870002CD1F6CF38D1F4CF26D1F2CF111559F1C2
:10088000C0FFEECF4D2F429546954770440F440F61
:100890002D2F2F7030E0042E02C0220F331F0A9438
:1008A000E2F780E090E0D4FF09C08FE090E002C062
:1008B000880F991F4A95E2F780959095C695C69541
:1008C000C370822B932BC23061F0C33061F0C13012
:1008D00031F05CD1C5CF823008F4C2CFD3CF4FD135
:1008E000BFCF5BD1BDCF0CD1BBCFCF70111529F0DD
:1008F0008C2F19D18D2F7EDEB3CF8D2F80DE8C2FE4
:1009000020D1AECF58F4D03FB1F0D13F79F01115DE
:10091000B9F1011591F18D2FEEDDA2CFD33FB1F0EA
:10092000D43FA9F78091320282FD18C08C2F8F71BD
:10093000111531F3DACE111539F0053008F090CFEA
:100940008C2F8F710ED18CCF0630F8CF111521F07E
:100950008C2F8F71DFD084CFDAD082CF111529F0A0
:1009600063E08C2F8F710FD57BCF81E023D50230D0
:1009700008F476CF82E01ED573CF8C2F8F71B5CE61
:10098000011571F0D93349F48FEF97EE23E08150D0
:1009900090402040E1F700C000008D2FE7DD60CFE0
:1009A0008C2F8F71ADCF0F931F93CF93DF93EC01FB
:1009B000688179818D81A9D18C01F6D083D0B8016D
:1009C000CE0122DEDF91CF911F910F910895CF9339
:1009D000DF93EC018C81811581F0CE01AADC8111BD
:1009E0000FC03BD4811549F08D81811531F0809184
:1009F000320282FF02C082E0DDD4DF91CF91089500
:100A0000CE01D1DFCE0183DCF8CF80E090E00E9400
:100A1000C41080E090E00E94EB1049D4AFC40E9463
:100A20006E11F3CF33D4FBCF282F92959F70963061
:100A300099F060F4925F9F70923030F4203FB1F0F3
:100A400038F481E0283E38F080E008959A5FF3CFD3
:100A500081E0243FC9F7089591E0813F09F090E0DB
:100A600081E0283E08F080E0892B089581E0089518
:100A7000FC012481211521F0808191813DD1D4CFC9
:100A800080E00895A6E0B0E0E8E4F5E00C942A19CF
:100A90002696E2E00C944619A7E0B0E0E2E5F5E026
:100AA0000C942A192796E2E00C9446190895FECF7B
:100AB0000895FDCF0895FADFFCDF8093A80190939D
:100AC000A90108950895F7CF08952091A8013091C4
:100AD000A901822B932BEFCF2091A8013091A9017E
:100AE00082239323E8CF2091A8013091A901822786
:100AF0009327E1CFDBCF0895FDCF0895D7CF089599
:100B0000FDDFFADF8093A6019093A701089580E0AE
:100B100090E0F6CF21E030E002C0220F331F8A952B
:100B2000E2F7C901EDCF21E030E002C0220F331F10
:100B30008A95E2F78091A6019091A701822B932BD1
:100B4000DFCF21E030E002C0220F331F8A95E2F7A9
:100B5000209530958091A6019091A701822393233F
:100B6000CFCF21E030E002C0220F331F8A95E2F799
:100B70008091A6019091A70182279327C1CF209150
:100B8000A6013091A701822B932BBACF2091A60109
:100B90003091A70182239323B3CF2091A6013091F6
:100BA000A70182279327ACCF0895CF93C1E061FDC1
:100BB000C4E060FDCC0F62FDC29593E07695679529
:100BC0009A95E1F7660F771F660F771F460F571F3D
:100BD000FA0140E050E090E06191DF019C01042EB9
:100BE00002C0369527950A94E2F72695220B262710
:100BF0002C2326272E934F5F5F4F4430510561F71A
:100C0000CF910895A82FA77023E0969587952A95F0
:100C1000E1F7880F991F880F991F680F791FFB0153
:100C200040E050E080E0219130E00A2E02C036958D
:100C300027950A94E2F72170042E01C0220F0A942E
:100C4000EAF7822B4F5F5F4F4430510561F70895FB
:100C5000262F943068F48A3058F4682F70E08AE0C8
:100C6000989F600D711D112442E951E0822F9DCFA4
:100C70000895292F943058F48A3048F490E062E9BE
:100C800071E03AE0239F800D911D1124BBCF80E0DD
:100C90000895CF92DF92FF920F931F93CF93DF932C
:100CA0006C010091A6011091A7018091A80190917B
:100CB000A901082B192BCFE0D0E081E090E00C2EA9
:100CC00002C0880F991F0A94E2F780239123892B91
:100CD00061F4219790F7F12C8F2DDF91CF911F9127
:100CE0000F91FF90DF90CF900895FC2EB6018C2FCE
:100CF000AAD5019771F3F0CFCF93DF93EC01C9DF51
:100D0000BE01A1D5DF91CF9108951F93CF93DF93BB
:100D1000EB0190919101911531F0CB01EDDFDF9165
:100D2000CF911F910895811551F0CB01B2DF182F9B
:100D3000682FCE018DDFBE01812F85D5F0CFCB018D
:100D400098DF182FF8CF0F931F930091AA0180917D
:100D5000AB01801303C01F910F91089587E0089F96
:100D6000F0011124E455FE4F2081318142815381ED
:100D700064817581868190DE0F5F1F4F0770E7CF1A
:100D80002091E4013091E5014091E6015091E701A5
:100D90006091E8017091E9018091EA017DCE809136
:100DA000EA01803170F48091E901811551F0E09100
:100DB000AA012091AB013091E5014091E4012E138D
:100DC00001C00895BF0187E0E89FF0011124DF0111
:100DD000A455BE4F14968C911497811549F1119624
:100DE0008C911197831324C08C91841321C0159684
:100DF0008C91159781111CC012968D919D91A09197
:100E0000E601B091E7018A1B9B0B883C910580F4B9
:100E10008091EA018F7080618093EA01EE54FE4F69
:100E200080818F708061808384EE91E0D0DD8BCFF4
:100E30006F5F7F4FFB01E770C2CFE091AA019091F5
:100E4000AB01E91302C080E008959F0157E0E59FE0
:100E5000F0011124E455FE4F5181561306C0508114
:100E6000581303C05581541305C02F5F3F4FF9013C
:100E7000E770E7CF81E008958F929F92AF92BF9283
:100E8000DF92EF92FF920F931F93CF93DF93CDB733
:100E9000DEB72D970FB6F894DEBF0FBECDBF8C0125
:100EA00086E0F801DE01189601900D928A95E1F72F
:100EB000F801F580848194EE892E91E0992E90912D
:100EC000E801911117C0811509F4EFC0F11409F47C
:100ED0002EC1C801CDDD811509F429C187E0F801D3
:100EE000D40101900D928A95E1F7C401FCDA57DF35
:100EF00047DFDBC0E080A280B380D090E901209181
:100F0000E6013091E701A501421B530BD11409F40E
:100F1000CFC0483C510508F09EC0811509F4C5C0FA
:100F20009091E50191808091EA01803108F065C0DF
:100F3000991226C09091E4019E1122C0F11057C071
:100F40008F7080618093EA011BDF84EE91E03FDDCA
:100F50008091EA01F8018683F12C8F2D2D960FB632
:100F6000F894DEBF0FBECDBFDF91CF911F910F91DF
:100F7000FF90EF90DF90BF90AF909F908F9008957B
:100F8000F11035C040E0692D8E2D57DF40E0692D0E
:100F90008E2D53DFF82E8111DFCF88859985ACDE49
:100FA000292F22952F70903450F49F70223078F0C2
:100FB000911591F0F8019681903170F4CECF2A5FAF
:100FC0002F70223070F0C80102DDFD2CC6CF9115C4
:100FD00019F0811509F4C1CF805E883008F4BDCFC7
:100FE000F2CF803F08F4B9CF815F8330F7CF809193
:100FF000EA0181608093EA01AFCF991207C0909116
:10100000E4019E1103C0F11409F473C0C80130DD7E
:10101000811509F48CC0F11409F489C08091EA01AA
:10102000803280F02091E4013091E50129833A83F8
:10103000AB82BC829091E8019D831E828F83CE019A
:101040000196C5DC87E0F801A4EEB1E001900D92B5
:101050008A95E1F74CCF9091EA01903188F4488568
:1010600059856A857B858C859D850CDD84EE91E0B4
:10107000AEDCF40187E011928A95E9F781DE6CCF4E
:10108000811599F02091E50181812813BFCF8091CE
:10109000E4018E11BBCFF110B9CF9683C80197DC64
:1010A000F40187E011928A95E9F7FF24F39455CF74
:1010B000483C510508F03EC08115B9F3F114B9F16F
:1010C0009091E5018181981329C08091E4018E11EE
:1010D00025C08091EA0180FD18C08031B0F0868380
:1010E000807F803F39F08681982F907F905F8F704E
:1010F000892B8683C8016BDC87E0F801A4EEB1E0A0
:1011000001900D928A95E1F7F3CE87E0F801A4EE05
:10111000B1E001900D928A95E1F7C7CFC801A8DC34
:10112000811190CF8091EA0181608093EA01C8012A
:101130004EDCBBCF488559856A857B858C859D852E
:10114000A1DC97CFAEE0B0E0E8EAF8E00C94291912
:10115000288739874A875B876C877D878E87CE0192
:1011600008968ADE6C85811599F0611539F028851D
:1011700039854A855B857D858E858EDC8091AA01C7
:101180009091AB0189133DC02E96E3E00C94451974
:1011900087E09E01285F3F4FF90127503109D901AF
:1011A00001900D928A95E1F7611541F3A091AB0191
:1011B0008A2F90E08395877090E0AC012091AA017E
:1011C0002417150691F097E09A9FD0011124A45599
:1011D000BE4F9E012F5F3F4FF90101900D929A95EE
:1011E000E1F74093AB01AFDDC9CF1CDC1092AB013E
:1011F0001092AA01E4EEF1E087E011928A95E9F7F6
:10120000BDCF17E0189FC001112484559E4F34DED6
:10121000811509F4B9CFE091AA011E9FF0011124B4
:10122000E455FE4F20813181428153816481758173
:10123000868132DC8091AA019091AB010196877082
:101240008093AA019BCF8091F30186958695869520
:1012500008958091F301877008959091F30197703C
:1012600081E0911101C080E008958091FF0108950F
:101270009091FF01982B9093FF0108958095982FEE
:101280008091FF0189238093FF0108951092FF014F
:1012900008959091FE01982B9093FE0108958095FA
:1012A000982F8091FE0189238093FE01089510926A
:1012B000FE0108950895FECF08959091F401292F1D
:1012C000282329F0809589238093F401F4CF089591
:1012D0000895FECF08959091F501292F282328170E
:1012E00021F0982B9093F501F4CF08959091F5019A
:1012F000292F282329F0809589238093F501E9CFB0
:1013000008958091F501811521F01092F50180E09A
:10131000E0CF08950F931F93CF93DF938091000147
:10132000909101018C01C091FF018091FE01C82BB9
:101330008091F501811521F0C82B74D78111E1DF6F
:10134000F801C083C0910001D091010148E050E054
:101350006BEE71E0CE010E945119892B51F088E0AB
:10136000FE01ABEEB1E001900D928A95E1F7CE015E
:10137000FED6DF91CF911F910F910895CBCF0895A5
:101380000895FECF08959091320292FF0EC0982FDB
:10139000990F990F990F962B9093F301C4DB8091CD
:1013A000F301869586958695ECCFBDCB1092F3011F
:1013B00080E0E7CF9091F301809589238093F3013A
:1013C000282F277059F4891749F09091320292FF23
:1013D00005C0869586958695B4DBE8CF08959091F3
:1013E000320292FB222720F9281749F080FB92F95C
:1013F0009093320281E392E043D082E0DBCF089504
:1014000080913202002482FF0394802DE8CF81E096
:10141000E6CF80E0E4CF80E090E0BC019FC380E0B5
:1014200090E0BC0195D3F7CFA3E0B0E0EAE1FAE0A9
:101430000C942A1946D351D31B82CE01039664D350
:1014400081E090E08093A8011092A90169D31982EC
:1014500084E18A83CE01019674D3E1DF2396E2E032
:101460000C944619E1CF08953EC308952BC3089507
:1014700040C308954FC3089553C3089556C30895B4
:1014800060C3089571C30895A6E0B0E0EAE4FAE00D
:101490000C9428190E9497128C018091000290915F
:1014A00001028017910779F019821A820E9497121F
:1014B000BC0149815A8180E090E00E94440200937F
:1014C0000002109301022696E4E00C9444190E9455
:1014D000A312609306027093070280930802909310
:1014E00009026093020270930302809304029093B6
:1014F0000502089508950895FDCF08950895FEDF2B
:10150000FBCF0895FECF08950895FEDFFBCF89E15C
:101510009DE072D4F0DFF3CF81E0089581E008957B
:10152000FBCF0895089508950895FCDFFCDFFCCFFC
:101530009DDF811101C096DF8AE092E099DF81E3AF
:1015400092E09CDF97DFBFDA8091A6019091A7011E
:10155000D3CAE4D7C1D3ECDFF9D50E942402D5CF9A
:10156000A6E0B0E0E6EBFAE00C941E19D7DF81119B
:1015700008C08ADFECD50E942C022696EEE00C947F
:101580003A19B9D329E2822E22E0922E740110E09A
:10159000F701C080D180812FF2D21F5F143009F48F
:1015A0004DC022E0E20EF11CC816D90689F38091E5
:1015B0000A0281FDEDD2B4DF682E10E0812FDFD268
:1015C0007C01F401A190B1904F018A159B0581F136
:1015D000A826BF2400E091E0C92ED12CC5018C21A2
:1015E0009D21892BE9F077247394C7018C219D21DB
:1015F000892B09F4712C611479F0602F812FF9D6B1
:1016000081110AC009831A8392D7BC0149815A818A
:1016100081E0972D0E944402472D602F812F00D733
:101620000F5FCC0CDD1C0A30C9F6F401F292E29295
:101630001F5F143009F0C2CF4ADF9CCFC816D9060D
:1016400009F0B5CF96CF0F931F93CF93DF93FDD0C3
:10165000EC01D23508F050C0D03508F0C8C0C03E0B
:10166000D10530F5CD3CD10508F09DC0C83AD10573
:1016700078F4C53AD10508F093C0C130D105B1F175
:10168000CE010497813A910588F1C0E0D0E02EC0E8
:10169000CE01885A91094B97C0F7C85AD0E0CC0FB9
:1016A000DD1FCA5BDE4F0990D881C02DD4641EC0F7
:1016B000D034A8F4D03208F0ADC0C83ED105B0F0A7
:1016C000CE0191509F3108F78D2F62D1082F8C2FBA
:1016D00090E0BBD0D02FDF71C82FD92B07C08C2F43
:1016E00090E0B3D0DF70C82FD92BD06ACE01DF9144
:1016F000CF911F910F910895C03882E5D807B8F5B2
:10170000C03682E5D80708F056C0C03482E5D80755
:10171000C8F4C03282E5D80708F047C08C2F869500
:10172000869520E2829FC0011124C37021E030E041
:1017300002C0220F331FCA95E2F7E901C82BD92B4B
:10174000DD68D4CF8C2F86958695877020E2829FA6
:10175000C0011124C37021E030E002C0220F331F0A
:10176000CA95E2F7E901C82BD92BDC68BFCFC03C92
:1017700082E5D80750F48C2F8F71C03AD24580F59E
:10178000982F84EF906AEC01B1CFCE01805C924536
:10179000809708F07ACFDC2FDF71C0EFD06AA6CF38
:1017A000A497D064A3CFD065A1CF8C2F8F71D82FF1
:1017B000C1EFD06A9BCF8C2F86958695877020E2EB
:1017C000829FC0011124C37021E030E002C0220FCB
:1017D000331FCA95E2F7E901C82BD92BDA6886CF07
:1017E000D7D0982F80E09F71EC01D0627FCF8C2FF3
:1017F0008F71CED053E0CC0FDD1F5A95E1F7DF702B
:10180000282F84FF04C090E1899F90011124C22FEA
:10181000D0696CCF8D2F8F71BBD0082F8C2F90E0AB
:1018200014D0302F3F71282F392B3062E9015ECF61
:10183000462F743028F46A3018F4672F0C942F0167
:1018400080E090E00895F4DFFECE803E9105D1F176
:10185000C8F48133910509F481C048F489329105B7
:1018600009F471C08A32910509F47FC00895893363
:101870009105E1F082389105C9F08533910509F4AD
:101880005DC00895843E9105D1F148F4823E9105F2
:1018900031F1833E910541F181EE90E00895863E5D
:1018A0009105C1F1873E9105F1F108952091310232
:1018B000237009F064C02091320223FF14C089E232
:1018C00090E008952091310220FD45C03091320210
:1018D00030FF09C024FD24C083EE90E008952091DC
:1018E000310222FDF7CF08952091310222FD44C03C
:1018F0003091320230FD43C024FFF5CF11C020915A
:10190000320221FFF0CF8091310284FD09C087EEC1
:1019100090E008952091310223FFE5CF24FFF7CF17
:1019200080E090E008952091310223FD2BC030919A
:10193000320231FFE1CF84EE90E008952091310230
:1019400025FFD1CFBCCF2091310225FD1EC02091B3
:10195000320223FFC8CF89E390E00895209131023D
:1019600026FFC1CF8AE290E008952091310226FF40
:10197000BACF81E390E0089582EE90E0089580EE82
:1019800090E0089586EE90E0089585E390E0089554
:101990009091310292FF10C041E0282F2471243031
:1019A00009F040E031E0282F2871283009F030E0BC
:1019B000431711F02CE0822793FF10C041E0282F3D
:1019C0002471243109F040E031E0282F28712831BA
:1019D00009F030E0431711F02CE0822730913202F9
:1019E00030FF10C051E0282F2171213009F050E064
:1019F00041E0282F2871283009F040E0541711F0F9
:101A000029E0822731FF10C041E0282F21712131C8
:101A100009F040E031E0282F2871283109F030E04A
:101A2000431711F029E0822794FF02C083FD877ECF
:101A3000089580E00895CF939C01205E3245C1E077
:101A40002032310538F4FB01C581C11103C08F710B
:101A50000E94DC018C2FCF9108959C01FB018581B0
:101A6000811599F02B359CE7390769F02C359CE7F7
:101A7000390721F02A353C4721F00895C1DC80E088
:101A80000895C5DCFCCFC5DCFACF81E008959C0148
:101A9000FB018581811599F021309CE7390761F0C0
:101AA00023309CE7390739F021153C4749F40E945F
:101AB000040280E00895D8DC0E940802FACF81E099
:101AC0000895089580E090E00E9466199C0181E0ED
:101AD000233E3E4F09F080E0089563EE7EEF80E004
:101AE00090E00C9485196FEF7FEF80E090E00C940C
:101AF0008519CF93DF93EC0182E090E00E945E199C
:101B00008883DF91CF910895FC01608182E090E0AD
:101B10000C946B1983E090E00E945E1990E00895A8
:101B2000682F83E090E00C946B19CF93DF93EC0166
:101B300084E090E00E94661988839983DF91CF91B9
:101B40000895FC016081718184E090E00C94851916
:101B5000AB01BC018FE090E00C947D19AB01BC019E
:101B600083E190E00C947D19682F8EE090E00C9456
:101B70006B190895FECF08950895FECF0895E82FBC
:101B8000F0E0EE0FFF1FE55CFD4F8081918108952D
:101B9000089580EA8A95F1F7089500C00895F9CF75
:101BA0000895F894E82FE295EF70F0E041A18F706E
:101BB00021E001C0220F8A95EAF7922F9095942395
:101BC00091A392A1822F892B82A378940895CF9319
:101BD000DF93C6E8D1E089918F3F09F0E2DF81E031
:101BE000CA38D807C1F7CCE7D1E089918F3F09F017
:101BF000D8DF81E0C638D807C1F7DF91CF910895CB
:101C0000AF92BF92DF92EF92FF920F931F93CF9309
:101C1000DF935C01D62EC62FD0E08E010A571E4FEF
:101C2000F80180818F3F09F44BC0F894E82FE295CA
:101C3000EF70F0E091A18F7021E001C0220F8A9532
:101C4000EAF7892F822B81A382A12095282322A342
:101C50007894A3DFECE7F1E021E030E0E12CF12C17
:101C600041914F3F79F0A42FA295AF70A05EB0E0F4
:101C70008C9190E04F7002C0959587954A95E2F758
:101C800080FF28C080E090E0E82AF92A220F331F65
:101C900081E0E638F80721F7F80180818F3F09F0ED
:101CA00080DF61E0E114F10409F460E08D2D77DF5D
:101CB000CC0FDD1FC5018C0F9D1FEC01E882F9825E
:101CC000DF91CF911F910F91FF90EF90DF90BF9028
:101CD000AF900895C901D8CF7ADFEBE3F2E088E056
:101CE00011928A95E9F7E3E3F2E088E011928A9590
:101CF000E9F73CD03FCFA8E0B0E0E1E8FEE00C948B
:101D00002719FE013196DF0188E01D928A95E9F7D7
:101D100010E00E2FFF2E612F802F9F2D71DF812F5E
:101D20008F5F182F8430B9F748E050E0602F7F2D87
:101D300083E392E00E94511941E0892B69F440E06D
:101D40006BE372E083E392E012D0182F16DF812F4D
:101D50002896E5E00C94431988E0E02FFF2DA3E3DB
:101D6000B2E001900D928A95E1F7EACF0895EF92E3
:101D7000FF920F931F93CF93DF938C017B01C42FAE
:101D8000411571F081E080930D02D1D380930B0255
:101D900090930C0280E0CDB7DEB7E6E00C944219D8
:101DA000D0910D02D115B1F380910B0290910C02EC
:101DB0004FD3059778F348E050E0B801C7010E947F
:101DC0005119892B41F088E0F801D70101900D925B
:101DD0008A95E1F7CD2F10920D028C2FDCCFC0CB6E
:101DE00008953FD31AD593DB30D5B3DB37D539D53A
:101DF000F6DF4DD59ADBFBCF80938A0190938B0160
:101E00000895CF93DF93EB0186319C47F9F42DDAE7
:101E10009D81911591F08A7A91E0811101C090E045
:101E200090930E02811539F085E34CD2A7DA80E059
:101E3000DF91CF91089589E2F8CF80910E0281154C
:101E400019F085E345D2F2CF89E2FCCF81E0F0CFF3
:101E5000CF93DF93EC01FB018581811509F4C8C0A4
:101E60009E0130572332310508F0A8C081E392E08B
:101E700005DBFE01E150F047E232F10520F4E556C2
:101E8000F64E0C94141980913102816080933102D6
:101E90008FC08091320288608093320289C0809125
:101EA00031028260F3CF809131028460EFCF809164
:101EB00031028860EBCF809132028160EDCF80915A
:101EC00032028260E9CF809131028061DFCF809160
:101ED00031028062DBCF809131028064D7CF0E94D3
:101EE0001205809131028068D1CF809131028C60DF
:101EF000CDCF809132028360CFCF809131028E7F2F
:101F0000C5CF80913202877FC7CF809131028D7F0C
:101F1000BDCF809131028B7FB9CF80913102877F15
:101F2000B5CF809132028E7FB7CF809132028D7F04
:101F3000B3CF809131028F7EA9CF809131028F7D06
:101F4000A5CF809131028F7BA1CF0E941205809195
:101F500031028F779BCF80913102837F97CF809121
:101F600032028C7F99CF90913102892F8B7F92FF23
:101F70008460877F92FF886089CF80913202982F9A
:101F8000909590FB80F990FB81F986CF909131027A
:101F9000892F8F7B96FF806479CF0E9412059091E4
:101FA0003102892F97FB87F9805870CF81E06ADA78
:101FB00081E392E065DA0E94120580E0DF91CF9123
:101FC000089580E0F4CF90913102892F8F7E94FFA5
:101FD00080615CCF90913102892F8E7F90FF81606C
:101FE00055CF90913202892F877F93FF886054CF1D
:101FF00081E0E4CF0F931F93CF93DF93C42FD22FB1
:10200000FC0185818115C9F04093110290D2809323
:102010000F02909310028C2F805E883048F481E08C
:10202000C1FD84E0C0FD880FC2FD82950E94FA02C6
:10203000DF91CF911F910F91089510911102141308
:1020400033C080910F029091100202D2883C91051A
:1020500058F5CD2FC05E1D17C1F0812F805E8830EE
:1020600048F481E011FD84E010FD880F12FD829597
:102070000E94FF02C83048F481E0D1FD84E0D0FD29
:10208000880FD2FD82950E94FA02802F0E94F302EF
:1020900081E0D1FD84E0D0FD880FD2FD8295C8306B
:1020A00038F60E94FF02C4CF8C2F805E883008F083
:1020B000BFCF81E0C1FD84E0C0FD880FC2FD8295E5
:1020C000F0CF0F93FC01CB01E851FC47E730F1055D
:1020D00088F5E354F64E0C94141906E221EE41EE15
:1020E0006AE17CE787DF80E00F91089507E225EE43
:1020F00045EE6BE17CE7F6CF06E221EE40EE68E1CB
:102100007CE7F0CF07E225EE44EE69E17CE7EACF19
:1021100006E221EE42EE6CE17CE7E4CF07E225EE39
:1021200046EE6DE17CE7DECF08E221E045EE6EE1B0
:102130007CE7D8CFFB01858181111092110281E0EB
:10214000D3CF8093160290931702089508950895AF
:10215000E0911602F0911702309739F00190F0816A
:10216000E02D309711F00995089580E00895E091F1
:102170001602F0911702309731F00280F381E02DC2
:10218000309709F009950895A3E0B0E0EAECF0E19A
:102190000C942A192091140230911502281739073E
:1021A000B1F08093140290931502E0911602F09121
:1021B0001702309761F00084F185E02D309739F0F7
:1021C00023E029838A839B83CE0101960995239678
:1021D000E2E00C944619A3E0B0E0E1EFF0E10C94EA
:1021E0002A19209112023091130228173907B1F0F1
:1021F0008093120290931302E0911602F09117025D
:10220000309761F00084F185E02D309739F024E0BB
:1022100029838A839B83CE01019609952396E2E068
:102220000C94461940910001509101019A012E5FD2
:102230003F4F485F5F4F80E0F90190812F5F3F4F34
:1022400091118F5F42175307B9F70895811591F0E7
:102250002091000130910101F9013296285F3F4F32
:102260009081981731F03196E217F307C9F780E0B3
:10227000089581E008959C01FC01329680E09FEF73
:102280004081461759F031969F3F19F4411101C022
:10229000982F8F5F8630A1F79F3F09F40895290F8B
:1022A000311D97FD3A95F90162830895FC0132963C
:1022B00008962191261302C0DF011E92E817F90744
:1022C000C1F70895682F8091000190910101D3CF4B
:1022D000682F8091000190910101E8CFE091000109
:1022E000F0910101329686E011928A95E9F70895FE
:1022F0000895FECF08958F5F8093050160910201DC
:10230000709103018091040190910501F2CF83E067
:102310008093050160910201709103018091040195
:1023200090910501E6CFE7CF089581E08093050104
:102330006091020170910301809104019091050167
:10234000D8CFF3CF089591E0811101C090E0909330
:102350000401609102017091030180910401909148
:102360000501C7CF80910401089580930301609116
:102370000201709103018091040190910501B9CF90
:102380008091030108958093020160910201709190
:1023900003018091040190910501ABCF809102016E
:1023A000089508950895FECF089508950895F9CFEA
:1023B00008950F931F93CF93DF93F7DF9CDCF6DF35
:1023C00008E112E0C0E0D0E08C2FD9DB9C01F801DD
:1023D000819331938F0191E0232B09F490E0D92B65
:1023E000CF5FC43089F78D2FDF91CF911F910F916F
:1023F0000895E82FF0E0EE0FFF1FE85EFD4F81E04B
:1024000090E002C0880F991F6A95E2F7BC018081B5
:1024100091816823792381E0672B09F480E0089596
:10242000411115C0E82FF0E0EE0FFF1FE85EFD4FF1
:1024300081E090E002C0880F991F6A95E2F78095CD
:102440009095208131818223932380839183089505
:10245000CF93DF93EC016BD08C1B9D0BDF91CF9161
:10246000089585B7806885BF85B7806885BF089562
:102470001F921FB61F9211248F939F93AF93BF9308
:1024800080912002811113C08091430290914402F7
:10249000A0914502B09146024196A11DB11D8093C5
:1024A000430290934402A0934502B0934602BF9129
:1024B000AF919F918F911F901FBE1F901895809193
:1024C0004B02843031F10E940C021092200288E10C
:1024D00090E020E40FB6F894A895809360000FBEBA
:1024E0002093600083B7817F846083BF83B781605E
:1024F00083BF7894889583B78E7F83BF0FB6F89497
:10250000A8958091600088618093600010926000BF
:102510000FBE08950E9412050C94100282E084BD43
:1025200093E095BD9AEF97BD80936E0008952FB705
:10253000F8948091430290914402A0914502B09199
:1025400046022FBF08952FB7F8946091430270910F
:10255000440280914502909146022FBF08957894DD
:102560001F921FB61F9211248F939F93AF93BF9317
:102570008091430290914402A0914502B09146029D
:102580000196A11DB11D8093430290934402A09334
:102590004502B0934602BF91AF919F918F911F90DA
:1025A0001FBE1F90189587E797E7809300089093C8
:1025B000010888E19AE00FB6F894A895809360002E
:1025C0000FBE90936000FFCF88E19AE00FB6F894B9
:1025D000A895809360000FBE90936000FFCF089590
:1025E00008959B01BA0190914B029430D9F48F70F9
:1025F0008093E9009FEF8091E80085FD06C085ED9E
:102600008A95F1F700009150B1F78091E80085FFBD
:1026100009C040E050E0C901ACD18091E8008E775C
:102620008093E800089543E050E0BC0182E0D9CFF8
:10263000CF93DF93EC0196DE48E050E0BE0181E0ED
:10264000D0DF88E0FE01A1E2B2E001900D928A9510
:10265000E1F7DF91CF91089580914A02811107C07F
:1026600016D366D38091E20084608093E2000895DF
:1026700010924A02089559DE81E065CE60914702CA
:1026800081E0611101C080E042CE90914B0281E077
:10269000943009F080E06091470245CE42E061EC61
:1026A00081E071D242E261EC82E06DD290914B0206
:1026B00081E0943009F080E0609147021CCE809167
:1026C0004D02893081F148F4823009F496C083309C
:1026D00009F457C0813041F008958A3009F480C070
:1026E0008B3009F468C0089580914C02813A09F05A
:1026F00047C08091E800877F8093E8008091500276
:1027000090915102892B59F060E080E090E070E0F8
:102710007DD18091E8008B778093E800089568E090
:1027200081E292E0F4CF80914C02813249F58091B0
:10273000500290915102029718F58091E800877F2E
:102740008093E8008091E80082FF16C02091F3009A
:102750008091F200922F029731F48091F100813044
:1027600011F0863019F48091F100FFDD8091E800CE
:102770008B778093E8003BC280914B028111E2CFBE
:10278000089580914C02813AD9F78091500290913E
:102790005102892BA9F78091E800877F8093E80098
:1027A0008091E80080FFFCCFDDDD8093F100809117
:1027B000E8008E77DECF80914C02813209F780915C
:1027C000500290915102892BD9F68091E800877FC1
:1027D0008093E8000CD280914E02B5DD0C94120576
:1027E00080914C02813261F68091E800877F80936E
:1027F000E800FDD180914F02C6CD80914C02813A14
:1028000009F0BECF8091E800877F8093E800809137
:10281000E80080FFFCCFC2DDC8CF84B7877F84BFCC
:102820000FB6F894A895809160008861809360004D
:10283000109260000FBE80E890E00FB6F89480938D
:102840006100909361000FBE7CCD21D271D2E2EE87
:10285000F0E08081846080837894CDC486E091E04C
:1028600070CC80914B02853029F480914B028530E9
:1028700011F050CE089523DE9CDD8115B1F38091D7
:102880004902811591F35FD00E941205EECF0895A1
:102890009A01409152025091530200C0492F50E0DA
:1028A00043305105C9F070F441305105E9F142302F
:1028B000510571F48BE390E04CE251E0F901408363
:1028C0005183089541325105E9F04232510519F121
:1028D00080E090E040E0F2CF482F50E0813061F09E
:1028E0004230510561F0E8E2F1E04115510581F710
:1028F000849190E0AF01E2CFE4E1F1E0F9CFECEFB9
:10290000F0E0F6CF61307105A0F011F789E090E0BA
:1029100047E551E0D3CF6130710580F0C9F682E31D
:1029200090E049E751E0CACF82E190E047E651E00C
:10293000C5CF89E090E04EE351E0C0CF84E490E061
:102940004BEA51E0BBCF80E189BD82E189BD09B48A
:1029500000FEFDCF8091D8008F7D8093D8008091BC
:10296000E00082608093E0008091E00081FDFCCF78
:102970000895AF92BF92CF92DF92FF920F931F9371
:10298000CF93DF936C01EB018A0150D1F82E8111B6
:1029900023C00115110539F0F80180819181C81B10
:1029A000D90BC80ED91EA12CB12C2097A9F080916B
:1029B000E80085FD21C08091E8008E778093E800D3
:1029C00001151105A1F0F801808191818A0D9B1DEF
:1029D0008083918385E0F82E8F2DDF91CF911F9119
:1029E0000F91FF90DF90CF90BF90AF9008951ED1D0
:1029F0008115E9F2F82EF0CFF60181916F018093F5
:102A0000F10021978FEFA81AB80ACFCFFC012091CF
:102A10005202309153022617370720F061157105D5
:102A200069F09B0190E02115310571F491110CC002
:102A30008091E80082FF38C080E008959091E8001E
:102A40009E779093E800EDCF80914B028115C1F104
:102A50008530C1F18091E80083FD30C08091E800AD
:102A600082FDE6CF8091E80080FFDDCF8091F3000A
:102A70004091F200582F2115310519F048305105C9
:102A800058F091E04830510509F090E04091E8009D
:102A90004E774093E800C7CF81918093F100215099
:102AA00031094F5F5F4FE7CF80914B02811541F0B5
:102AB000853041F08091E80083FFBACF81E008952E
:102AC00082E0089583E00895FC0120915202309144
:102AD00053022617370720F06115710569F09B0135
:102AE00090E02115310571F491110CC08091E8003E
:102AF00082FF39C080E008958091E8008E7780934E
:102B0000E800EDCF80914B028115C9F18530C9F104
:102B10008091E80083FD31C08091E80082FDE6CF1E
:102B20008091E80080FFDDCF8091F3004091F200BA
:102B3000582F2115310519F04830510558F091E012
:102B40004830510509F090E08091E8008E7780933D
:102B5000E800C7CF84918093F1003196215031096C
:102B60004F5F5F4FE6CF80914B02811541F085307A
:102B700041F08091E80083FFB9CF81E0089582E0C1
:102B8000089583E00895982F973028F08F708093F0
:102B9000E90081E008959093E900242F762F50E01A
:102BA000981731F07091EC002091ED005091F000F9
:102BB00021FD02C09F5FE8CF3091EB003E7F309354
:102BC000EB003091ED003D7F3093ED003091EB0054
:102BD00031603093EB007093EC002093ED00509344
:102BE000F0002091EE0027FDE5CF80E00895809170
:102BF0004C0287FF13C08091E80082FF06C08091DD
:102C0000E8008B778093E800089580914B02811152
:102C1000F2CF089580914B028115D9F38091E8009D
:102C200080FFF8CF8091E8008E77ECCF2091E40010
:102C30003091E50095E6A9012091EC00822F81708A
:102C400020FF06C08091E80080FF06C080E0089564
:102C50002091E80022FD1AC080914B02811589F075
:102C6000853089F08091EB0085FD0FC02091E40054
:102C70003091E50042175307F9F29150E1F684E0F4
:102C8000089582E0089583E0089581E008955FD07B
:102C900066D0E0EEF0E0808181608083E8ED8081A5
:102CA0008F77808319BCA7EDB0E08C918E7F8C93D9
:102CB00080818F7E808310924A020895CF93DF93A4
:102CC00046D04DD0C8EDD0E088818F778883888149
:102CD0008068888388818F7D888319BC10924B021D
:102CE000109247021092490210924802E0EEF0E082
:102CF00080818B7F808388818160888342E060E06F
:102D000080E041DFE1EEF0E080818E7F8083E2EEC3
:102D1000808181608083808188608083E0EE808113
:102D20008E7F8083888180618883DF91CF91089531
:102D3000E8EDF0E080818F7E8083E7ED8081816027
:102D4000808384E082BF81E080934A02B7CFE8EDC0
:102D5000F0E080818E7F80831092E20008951092CF
:102D6000DA001092E10008951F920F920FB60F92B1
:102D700011242F933F934F935F936F937F938F9380
:102D80009F93AF93BF93EF93FF938091E10082FFF6
:102D90000AC08091E20082FF06C08091E1008B7F33
:102DA0008093E10027D28091DA0080FF18C08091E3
:102DB000D80080FF14C08091DA008E7F8093DA0003
:102DC0008091D90080FF8FC080E189BD82E189BDFB
:102DD00009B400FEFDCF81E080934B023DDC809181
:102DE000E10080FF18C08091E20080FF14C0809154
:102DF000E2008E7F8093E2008091E2008061809308
:102E0000E2008091D80080628093D80019BC85E0F0
:102E100080934B0233DC8091E10084FF28C08091D5
:102E2000E20084FF24C080E189BD82E189BD09B44C
:102E300000FEFDCF8091D8008F7D8093D8008091D7
:102E4000E1008F7E8093E1008091E2008F7E80938D
:102E5000E2008091E20081608093E200809147026D
:102E6000811509F445C084E080934B020EDC80910B
:102E7000E10083FF27C08091E20083FF23C080919F
:102E8000E100877F8093E10082E080934B02109203
:102E900047028091E1008E7F8093E1008091E20003
:102EA0008E7F8093E2008091E20080618093E20057
:102EB00042E060E080E067DE8091F000886080930F
:102EC000F000D9DBFF91EF91BF91AF919F918F916E
:102ED0007F916F915F914F913F912F910F900FBE16
:102EE0000F901F90189519BC10924B02C1DB77CF41
:102EF0008091E30087FF02C083E0B6CF81E0B4CFCA
:102F00001F920F920FB60F9211241F932F933F938E
:102F10004F935F936F937F938F939F93AF93BF93E1
:102F2000CF93DF93EF93FF93E9EEF0E08081109170
:102F3000EC008F7010FB112717F9182B1082C0EFCF
:102F4000D0E08881877F888378941CD0E9EEF0E018
:102F500010828881886088831F701083FF91EF91B1
:102F6000DF91CF91BF91AF919F918F917F916F91A1
:102F70005F914F913F912F911F910F900FBE0F9036
:102F80001F901895AAE2B0E0E7ECF7E162C18CE48B
:102F900092E0FC0101962091F100208322E084352B
:102FA0009207B9F78CDB8091E80083FF37C08091EE
:102FB0004C0290914D029A3088F5E92FF0E0EC53E5
:102FC000F64E32C1803889F0823841F58091500246
:102FD0008F70873018F58093E9008091EB0085FBB6
:102FE000882780F91092E90006C080914902880F75
:102FF00090914802892B9091E800977F9093E80088
:103000008093F1001092F1008091E8008E7722C049
:10301000811115C080914E02813001F18091E8004C
:1030200083FF0AC08091E800877F8093E800809149
:10303000EB0080628093EB00AA96E3E026C1823029
:1030400069F780914E02811579F01092E900809124
:10305000E800877F8093E800CADDE0CF933009F075
:1030600080E080934902F1CF809150028F70282F29
:103070002150263098F68093E9002091EB0020FF44
:10308000E4CF933031F48091EB0080628093EB00C9
:10309000DCCF9091EB0090619093EB0021E001C0B8
:1030A000220F8A95EAF72093EA001092EA008091B5
:1030B000EB008860EBCF8111B1CF80914E028F770A
:1030C000182F8091E3008078812B8093E30080911A
:1030D000E800877F8093E8008ADD8091E80080FF28
:1030E000FCCF8091E30080688093E30083E01111BE
:1030F00001C082E080934B0291CF8058823008F06B
:103100008DCF80914E0290914F028C3D23E092072B
:1031100089F583E08A838AE289834FB7F894DE01D8
:10312000139620E03EE051E2E32FF0E05093570089
:10313000849120FF03C082958F703F5F8F708A302B
:10314000B8F0895C8D931D922F5F243169F74FBFD2
:103150008091E800877F8093E8006AE270E0CE010A
:10316000019654DC8091E8008B778093E80056CF7D
:10317000805DE8CF6091500270915102AE014F5FC7
:103180005F4F86DBBC01892B09F448CF9091E800A2
:10319000977F9093E80089819A8196DCE3CF80380D
:1031A00009F03CCF8091E800877F8093E800809110
:1031B00047028093F10028CF811130CF90914E02C9
:1031C000923008F02BCF8091E800877F8093E80051
:1031D000909347020CDD80914702811529F084E02D
:1031E00080934B025BDA1ACF8091E30087FDF7CF23
:1031F00081E0F6CF0895CF9380914B02811591F035
:103200008091E900C091EC008F70C0FBCC27C7F91A
:10321000C82B1092E9008091E80083FDB3DECF70E7
:10322000C093E900CF910895EE0FFF1F0590F49130
:10323000E02D09942F923F924F925F926F927F926E
:103240008F929F92AF92BF92CF92DF92EF92FF92B6
:103250000F931F93CF93DF93CDB7DEB7CA1BDB0B62
:103260000FB6F894DEBF0FBECDBF09942A88398807
:1032700048885F846E847D848C849B84AA84B9840E
:10328000C884DF80EE80FD800C811B81AA81B9811A
:10329000CE0FD11D0FB6F894DEBF0FBECDBFED012E
:1032A0000895FB01DC0104C08D910190801921F487
:1032B00041505040C8F7881B990B0895F999FECFEB
:1032C00092BD81BDF89A992780B50895A8E1B0E034
:1032D00042E050E020C0262FF999FECF92BD81BD7B
:1032E000F89A019700B4021639F01FBA20BD0FB644
:1032F000F894FA9AF99A0FBE08950396272FECDFF7
:10330000EADF252FE9DF242FE7CF0196272FE4DF1F
:10331000E2CFDC01CB01FC01F999FECF06C0F2BD82
:10332000E1BDF89A319600B40D9241505040B8F783
:103330000895F894FFCF7D0FEA0F850F4F0F530FBD
:10334000890F570F8D0F990F630FE30F670F9D0FB5
:103350006B0FA10FC60F6F0FA50FCD0F750FAB0F22
:10336000B30F5B0F910F5F0F950F790FAF0FBD0F6D
:10337000D60FE10F490F810FF10F7C1082106D10F5
:10338000761088108E109410E21708180E1808187E
:0C3390000E185B187D180E18CF18DC1802
:10339C00F60100000100C0111813F012EF12131304
:1033AC00E200E900EA00B500B600B700CD008301E9
:1033BC00CC008A01920194012102230224022502ED
:1033CC00260227022A02B300B4006F0070009F018E
:1033DC00CB019F02A002E200E900EA00B500B600B2
:1033EC00B700CD008301CC008A0192019401210227
:1033FC00230224022502260227022A02B300B4006B
:10340C006F0070009F01CB019F02A00293929190DC
:0A341C00946697C63435F4F5F6F710
:00000001FF
